:100000000C9446000C9465000C9465000C946500FB
:100010000C9465000C9465000C9465000C946500CC
:100020000C9465000C9465000C9465000C946500BC
:100030000C9465000C94DC000C9465000C94650035
:100040000C9465000C9465000C9465000C9465009C
:100050000C9465000C9465000C9465000C9465008C
:100060000C9465000C9465000C9465000C9465007C
:100070000C9465000C9465000C9465000C9465006C
:100080000C9465000C9465000C94650011241FBE4F
:10009000CFEFD0E4DEBFCDBF11E0A0E0B1E0E2E3FE
:1000A000F6E000E00BBF02C007900D92A231B1074D
:1000B000D9F721E0A2E1B1E001C01D92AD31B20754
:1000C000E1F70E94CE020C9417030C940000CF932A
:1000D000DF9300D01F92CDB7DEB789837B836A831D
:1000E00089818A3031F48A819B81BC018DE00E9434
:1000F000670080EC90E0FC018081882F90E08072A6
:100100009927892BB1F386EC90E02981FC012083AB
:1001100080E090E00F900F900F90DF91CF910895C5
:10012000CF93DF93CDB7DEB781E890E02BE0FC0101
:10013000208388E890E02DE730E0FC0131832083C4
:100140008FE690E022E0FC01208384E890E0FC014F
:100150001182108280910E0190910F01A0911001E7
:10016000B09111018093130190931401A093150194
:10017000B09316018FE590E02FE530E0F901208182
:100180002068FC0120830000DF91CF910895CF9378
:10019000DF93CDB7DEB7109212010000DF91CF914F
:1001A0000895CF93DF93CDB7DEB781E0809312013E
:1001B0000000DF91CF9108951F920F9200905F0091
:1001C0000F92112400905B000F922F933F934F9357
:1001D0005F936F937F938F939F93AF93BF93EF93AF
:1001E000FF93CF93DF93CDB7DEB78091130190914A
:1001F0001401A0911501B09116010197A109B1094F
:100200008093130190931401A0931501B0931601EC
:100210008091130190911401A0911501B0911601E4
:10022000892B8A2B8B2B91F40E94D10080910E0197
:1002300090910F01A0911001B091110180931301D1
:1002400090931401A0931501B09316010000DF9163
:10025000CF91FF91EF91BF91AF919F918F917F913E
:100260006F915F914F913F912F910F9000925B00A2
:100270000F9000925F000F901F901895CF93DF931F
:1002800000D000D0CDB7DEB769837A838B839C839F
:1002900089819A81AB81BC8180930E0190930F017B
:1002A000A0931001B093110180910E0190910F0164
:1002B000A0911001B091110180931301909314014A
:1002C000A0931501B093160100000F900F900F90AE
:1002D0000F90DF91CF910895CF93DF93CDB7DEB725
:1002E00080911801909119018230910509F45EC046
:1002F0008330910528F4009759F0019799F020C1B7
:100300008330910509F497C0049709F4D9C018C146
:1003100087E080931A0181E090E090931901809327
:1003200018011AC1809117018823A1F080911C0146
:10033000882381F482E090E0909319018093180162
:1003400080911A01893088F580911A018F5F80931E
:100350001A012BC0809117018823A1F480911C0100
:10036000882381F083E090E0909319018093180135
:1003700080911A018823C9F080911A0181508093DD
:100380001A0113C080911701882309F4DEC08091FF
:100390001C01882309F4D9C084E090E090931901EE
:1003A0008093180110921A01D0C0CFC0809117011C
:1003B0008823E9F080911C018823C9F480911B01F6
:1003C0008F5F80931B0182E090E0909319018093EE
:1003D000180180911B018B3060F180911A018930E6
:1003E00040F580911A018F5F80931A0122C080919D
:1003F0001701882359F480911C01882339F481E086
:1004000090E0909319018093180114C08091170116
:10041000882309F49CC080911C01882309F497C0AB
:1004200084E090E0909319018093180110921A01D2
:100430008EC000008CC0809117018823E9F4809160
:100440001C018823C9F080911B018F5F80931B01E1
:1004500083E090E0909319018093180180911B0133
:100460008B3060F180911A01882341F180911A014B
:10047000815080931A0122C080911701882359F47A
:1004800080911C01882339F481E090E09093190158
:100490008093180114C080911701882309F459C072
:1004A00080911C01882309F454C084E090E090936B
:1004B00019018093180110921A014BC0000049C025
:1004C00080911701882359F480911C01882339F405
:1004D00081E090E0909319018093180130C08091E1
:1004E00017018823A1F080911C01882381F482E008
:1004F00090E0909319018093180180911A0189303E
:10050000F0F480911A018F5F80931A0118C08091D6
:100510001701882301F580911C018823E1F083E015
:1005200090E0909319018093180180911A0188231B
:1005300091F080911A01815080931A010CC00BC078
:10054000109219011092180107C0000005C00000A8
:1005500003C0000001C000008091180190911901B2
:100560008230910571F08330910528F4009759F09D
:10057000019759F00FC08330910549F0049749F075
:1005800009C0000007C0000005C0000003C0000053
:1005900001C000000000DF91CF910895CF93DF9359
:1005A000CDB7DEB781E290E0FC01108282E290E0FC
:1005B0002FEFFC01208384E290E02FEFFC012083E9
:1005C00085E290E0FC01108264E670E080E090E05B
:1005D0000E943E010E949000109219011092180191
:1005E00080E290E0FC018081882F90E08170992763
:1005F00021E0892B09F020E0822F8093170180E20F
:1006000090E0FC0180818095827080931C010E94A3
:100610006C010000809112018823E1F31092120115
:1006200085E290E020911A01FC012083D9CFF89453
:02063000FFCFFA
:10063200000000020000000067000000000001004E
:020642000000B6
:00000001FF
