:100000000C9454000C9473000C9473000C947300C3
:100010000C9473000C9473000C9473000C94730094
:100020000C9473000C9473000C9473000C94730084
:100030000C9473000C9460020C9473000C94730085
:100040000C9473000C9473000C9473000C94730064
:100050000C9473000C9473000C9473000C94730054
:100060000C9473000C9473000C9473000C94730044
:100070000C9473000C9473000C9473000C94730034
:100080000C9473000C9473000C9473000C04130410
:100090002D04480477048904BC042D0534054E055D
:1000A00069059805AA05DD0511241FBECFEFD0E430
:1000B000DEBFCDBF11E0A0E0B1E0EEE4F1E100E091
:1000C0000BBF02C007900D92AA31B107D9F721E00A
:1000D000AAE1B1E001C01D92AA37B207E1F70E9480
:1000E00089060C94A5080C940000CF93DF9300D0F0
:1000F0001F92CDB7DEB789837B836A8389818A307B
:1001000031F48A819B81BC018DE00E94750080ECF6
:1001100090E0FC018081882F90E080729927892BE4
:10012000B1F386EC90E02981FC01208380E090E02F
:100130000F900F900F90DF91CF910895CF93DF93A1
:1001400000D01F92CDB7DEB78B831A82198227C0E9
:1001500088E290E028E0FC01208388E290E028E239
:1001600030E0F9012081422F2B81222F30E00980DD
:1001700002C0359527950A94E2F72170242BFC01E3
:10018000208388E290E028E230E0F90120812260BB
:10019000FC01208389819A8101969A8389838981D0
:1001A0009A810897ACF288E290E028E230E0F90109
:1001B00020812460FC01208388E290E0FC01108211
:1001C00000000F900F900F90DF91CF910895CF9383
:1001D000DF9300D01F92CDB7DEB78B831A821982CE
:1001E00027C08BE290E028E0FC0120838BE290E0C6
:1001F0002BE230E0F9012081422F2B81222F30E0C9
:10020000098002C0359527950A94E2F72170242BC6
:10021000FC0120838BE290E02BE230E0F9012081A9
:100220002260FC01208389819A8101969A838983C7
:1002300089819A810897ACF28BE290E02BE230E062
:10024000F90120812460FC0120838BE290E0FC0115
:10025000108200000F900F900F90DF91CF910895C2
:10026000CF93DF9300D000D0CDB7DEB769837A8318
:100270008B839C8389819A81AB81BC8180930E01A1
:1002800090930F01A0931001B093110180910E0182
:1002900090910F01A0911001B091110180931B0169
:1002A00090931C01A0931D01B0931E0100000F90BC
:1002B0000F900F900F90DF91CF910895CF93DF9320
:1002C000CDB7DEB781E890E02BE0FC01208388E821
:1002D00090E02DE730E0FC01318320838FE690E051
:1002E00022E0FC01208384E890E0FC01118210826E
:1002F00080910E0190910F01A0911001B091110118
:1003000080931B0190931C01A0931D01B0931E01CB
:100310008FE590E02FE530E0F90120812068FC01B5
:1003200020830000DF91CF910895CF93DF93CDB765
:10033000DEB781E890E0FC0110820000DF91CF91F0
:1003400008950F931F93CF93DF931F92CDB7DEB71E
:100350001982A6C08981282F30E0C901880F991F12
:10036000820F931F880F991F880F991F845D9E4FDE
:10037000FC0120813181428153818981682F70E0A5
:10038000CB01880F991F860F971F880F991F880F21
:10039000991F885D9E4FFC0180819181A281B3816C
:1003A000281739074A075B0708F449C08981082FD5
:1003B00010E08981282F30E0C901880F991F820F32
:1003C000931F880F991F880F991F805D9E4FFC0116
:1003D000408151818981282F30E0C901880F991F00
:1003E000820F931F880F991F880F991F8A5D9E4F58
:1003F000FC0180819181FA0109959C01C801880F57
:10040000991F800F911F880F991F880F991F8A5D70
:100410009E4FFC01318320838981282F30E0C90160
:10042000880F991F820F931F880F991F880F991F9C
:10043000845D9E4FFC011082118212821382898199
:10044000682F70E08981282F30E0C901880F991F3B
:10045000820F931F880F991F880F991F845D9E4FED
:10046000FC0180819181A281B38124E630E040E0EB
:1004700050E0280F391F4A1F5B1FCB01880F991FBF
:10048000860F971F880F991F880F991F845D9E4FB5
:10049000FC01208331834283538389818F5F898369
:1004A0008981282F30E086E090E02817390708F48A
:1004B00051CF00000F90DF91CF911F910F910895C0
:1004C0001F920F9200905F000F92112400905B002A
:1004D0000F922F933F934F935F936F937F938F93DD
:1004E0009F93AF93BF93EF93FF93CF93DF93CDB7DA
:1004F000DEB780911B0190911C01A0911D01B0916C
:100500001E010197A109B10980931B0190931C0161
:10051000A0931D01B0931E0180911B0190911C01BD
:10052000A0911D01B0911E01892B8A2B8B2B91F478
:100530000E94A10180910E0190910F01A0911001E4
:10054000B091110180931B0190931C01A0931D0198
:10055000B0931E010000DF91CF91FF91EF91BF9109
:10056000AF919F918F917F916F915F914F913F914B
:100570002F910F9000925B000F9000925F000F9000
:100580001F901895CF93DF9300D0CDB7DEB79A8335
:10059000898389819A81009719F00197A9F052C047
:1005A00010921F0180912401813021F0809125015A
:1005B000813039F481E090E09A83898310922001A0
:1005C00044C01A82198241C080912001883090F481
:1005D00080912001282F30E081E090E002C0880F58
:1005E000991F2A95E2F7982F80911F01892B8093FC
:1005F0001F010DC080912001883048F080912001BA
:10060000803128F480911F01869580931F0180918D
:1006100020018D5F8093200180912001803110F0B6
:100620001092200180912401813021F080912501D8
:10063000813029F481E090E09A83898306C01A8290
:10064000198203C01A821982000089819A810F9051
:100650000F90DF91CF910895CF93DF9300D0CDB766
:10066000DEB79A83898389819A81009719F001976F
:10067000A9F04AC01092210180912401823021F01A
:1006800080912501823039F41092220181E090E0BE
:100690009A8389833CC01A82198239C080912201D1
:1006A000282F30E081E090E002C0880F991F2A9542
:1006B000E2F7482F80912201282F30E080E890E077
:1006C00002C0959587952A95E2F7842B80932101A6
:1006D00080912201873030F4809122018E5F8093D7
:1006E000220102C01092220180912401823021F067
:1006F00080912501823029F481E090E09A838983FA
:1007000006C01A82198203C01A82198200008981E8
:100710009A810F900F90DF91CF910895CF93DF933F
:1007200000D0CDB7DEB79A83898389819A810097FB
:1007300019F00197A9F035C010921201809124019F
:10074000833021F080912501833039F41092230108
:1007500081E090E09A83898327C01A82198224C09D
:10076000809123018170882321F48CEC8093120105
:1007700003C083E380931201809123018150809311
:10078000230180912401833021F080912501833061
:1007900029F481E090E09A83898306C01A82198245
:1007A00003C01A821982000089819A810F900F90EC
:1007B000DF91CF910895CF93DF9300D000D0CDB7D4
:1007C000DEB79C838B8380E290E0FC018081882FE0
:1007D00090E08170992721E0892B09F020E029839E
:1007E00080E290E0FC018081809582708A838B8119
:1007F0009C81092E000CAA0BBB0B40E050E026E0C8
:1008000030E0841B950B2817390708F4E6C08A5B93
:100810009F4FFC010C949C0881E090E09C838B83AB
:1008200010922401E6C0109224018981882341F4AA
:100830008A81882329F481E090E09C838B83D0C057
:100840008981882309F4CCC08A81882309F4C8C02F
:1008500082E090E09C838B83C3C08981882359F414
:100860008A81882341F483E090E09C838B8381E03C
:1008700080932401B7C08981882309F4B3C08A8199
:10088000882309F4AFC082E090E09C838B83AAC0E8
:100890008981882341F08A81882329F084E090E0CF
:1008A0009C838B8323C08981882341F48A81882398
:1008B00029F483E090E09C838B8318C0898188238E
:1008C00041F08A81882329F485E090E09C838B8322
:1008D0000DC08981882309F087C08A81882309F4A3
:1008E00083C086E090E09C838B837EC07DC089813D
:1008F000882341F08A81882329F084E090E09C835A
:100900008B8377C081E090E09C838B8310922401DD
:1009100070C08981882341F08A81882329F485E089
:1009200090E09C838B8327C089818823A9F48A81E6
:10093000882391F483E090E09C838B838091240151
:10094000833030F4809124018F5F8093240113C0A1
:1009500081E0809324010FC08981882309F446C077
:100960008A81882309F442C084E090E09C838B83D1
:10097000109224013BC03AC08A81882341F08981CA
:10098000882329F486E090E09C838B8325C08981AD
:100990008823A9F48A81882391F483E090E09C83E2
:1009A0008B8380912401823030F08091240181502A
:1009B0008093240111C083E0809324010DC08981BC
:1009C0008823B1F08A81882399F084E090E09C83A9
:1009D0008B83109224010CC00BC01C821B8209C0A7
:1009E000000007C0000005C0000003C0000001C0F7
:1009F00000008B819C810F900F900F900F90DF91E2
:100A0000CF910895CF93DF9300D000D0CDB7DEB75C
:100A10009C838B8380E290E0FC01808180958470D0
:100A2000898380E290E0FC018081809588708A83D0
:100A30008B819C81092E000CAA0BBB0B40E050E07F
:100A400026E030E0841B950B2817390708F4E6C030
:100A5000835B9F4FFC010C949C0881E090E09C8399
:100A60008B8310922401E6C010922501898188238E
:100A700041F48A81882329F481E090E09C838B8370
:100A8000D0C08981882309F4CCC08A81882309F4E5
:100A9000C8C082E090E09C838B83C3C08981882397
:100AA00059F48A81882341F483E090E09C838B830E
:100AB00081E080932501B7C08981882309F4B3C000
:100AC0008A81882309F4AFC082E090E09C838B8305
:100AD000AAC08981882341F08A81882329F084E093
:100AE00090E09C838B8323C08981882341F48A8191
:100AF000882329F483E090E09C838B8318C089814C
:100B0000882341F08A81882329F485E090E09C8342
:100B10008B830DC08981882309F087C08A8188234F
:100B200009F483C086E090E09C838B837EC07DC007
:100B30008981882341F08A81882329F084E090E02C
:100B40009C838B8377C081E090E09C838B831092A1
:100B5000250170C08981882341F08A81882329F486
:100B600085E090E09C838B8327C089818823A9F44A
:100B70008A81882391F483E090E09C838B83809129
:100B80002501833030F4809125018F5F809325010A
:100B900013C081E0809325010FC08981882309F467
:100BA00046C08A81882309F442C084E090E09C8397
:100BB0008B83109224013BC03AC08981882341F085
:100BC0008A81882329F486E090E09C838B8325C06A
:100BD00089818823A9F48A81882391F483E090E0B5
:100BE0009C838B8380912501823030F08091250198
:100BF00081508093250111C083E0809325010DC0B1
:100C000089818823B1F08A81882399F084E090E07B
:100C10009C838B83109225010CC00BC01C821B820D
:100C200009C0000007C0000005C0000003C00000AC
:100C300001C000008B819C810F900F900F900F904E
:100C4000DF91CF910895CF93DF9300D0CDB7DEB77A
:100C50009A83898389819A81009719F0019731F0ED
:100C60004EC081E090E09A8389834CC0809124013A
:100C7000882321F480E00E949E001AC08091240104
:100C8000813029F480911F010E949E0011C0809143
:100C90002401823029F4809121010E949E0008C025
:100CA00080912401833021F4809112010E949E00E2
:100CB00080912501882321F480E00E94E7001AC07A
:100CC00080912501813029F480911F010E94E70065
:100CD00011C080912501823029F4809121010E9468
:100CE000E70008C080912501833021F48091120132
:100CF0000E94E70081E090E09A83898303C01A8212
:100D00001982000089819A810F900F90DF91CF9115
:100D10000895CF93DF931F92CDB7DEB781E290E0C5
:100D2000FC01108282E290E02FEFFC01208387E239
:100D300090E02FEFFC01208388E290E0FC0110821C
:100D40008AE290E02FEFFC0120838BE290E0FC012F
:100D5000108219828981282F30E0C901880F991FDC
:100D6000820F931F880F991F880F991F8A5D9E4FCE
:100D7000FC01118210828981282F30E0C901880F7F
:100D8000991F820F931F880F991F880F991F9C012D
:100D9000285D3E4F84E690E0A0E0B0E0F90180835A
:100DA0009183A283B3838981282F30E0C901880F02
:100DB000991F820F931F880F991F880F991F845DB9
:100DC0009E4FFC0110821182128213828981282F8A
:100DD00030E0C901880F991F820F931F880F991F58
:100DE000880F991F805D9E4F22EC32E0FC01318319
:100DF000208389818F5F89838981282F30E0C90111
:100E0000880F991F820F931F880F991F880F991FB2
:100E10008A5D9E4FFC01118210828981282F30E06B
:100E2000C901880F991F820F931F880F991F880F80
:100E3000991F9C01285D3E4F84E690E0A0E0B0E061
:100E4000F90180839183A283B3838981282F30E0C5
:100E5000C901880F991F820F931F880F991F880F50
:100E6000991F845D9E4FFC011082118212821382B1
:100E70008981282F30E0C901880F991F820F931FA5
:100E8000880F991F880F991F805D9E4F2CE233E0D9
:100E9000FC013183208389818F5F89838981282F99
:100EA00030E0C901880F991F820F931F880F991F87
:100EB000880F991F8A5D9E4FFC01118210828981E3
:100EC000282F30E0C901880F991F820F931F880FC8
:100ED000991F880F991F9C01285D3E4F84E690E082
:100EE000A0E0B0E0F90180839183A283B38389817C
:100EF000282F30E0C901880F991F820F931F880F98
:100F0000991F880F991F845D9E4FFC0110821182EA
:100F1000128213828981282F30E0C901880F991F1E
:100F2000820F931F880F991F880F991F805D9E4F16
:100F30002EE833E0FC013183208389818F5F898330
:100F40008981282F30E0C901880F991F820F931FD4
:100F5000880F991F880F991F8A5D9E4FFC0111828F
:100F600010828981282F30E0C901880F991F820FD4
:100F7000931F880F991F880F991F9C01285D3E4F72
:100F800084E690E0A0E0B0E0F90180839183A28341
:100F9000B3838981282F30E0C901880F991F820F00
:100FA000931F880F991F880F991F845D9E4FFC0126
:100FB00010821182128213828981282F30E0C901A8
:100FC000880F991F820F931F880F991F880F991FF1
:100FD000805D9E4F2BED33E0FC01318320838981BE
:100FE0008F5F89838981282F30E0C901880F991F7D
:100FF000820F931F880F991F880F991F8A5D9E4F3C
:10100000FC01118210828981282F30E0C901880FEC
:10101000991F820F931F880F991F880F991F9C019A
:10102000285D3E4F84E690E0A0E0B0E0F9018083C7
:101030009183A283B3838981282F30E0C901880F6F
:10104000991F820F931F880F991F880F991F845D26
:101050009E4FFC0110821182128213828981282FF7
:1010600030E0C901880F991F820F931F880F991FC5
:10107000880F991F805D9E4F22E035E0FC0131838F
:10108000208389818F5F89838981282F30E0C9017E
:10109000880F991F820F931F880F991F880F991F20
:1010A0008A5D9E4FFC01118210828981282F30E0D9
:1010B000C901880F991F820F931F880F991F880FEE
:1010C000991F9C01285D3E4F84E690E0A0E0B0E0CF
:1010D000F90180839183A283B3838981282F30E033
:1010E000C901880F991F820F931F880F991F880FBE
:1010F000991F845D9E4FFC0110821182128213821F
:101100008981282F30E0C901880F991F820F931F12
:10111000880F991F880F991F805D9E4F23E236E04C
:10112000FC013183208364E670E080E090E00E945F
:1011300030010E945E01FFCFEE0FFF1F0024001C54
:0E1140000BBE0790F691E02D0994F894FFCFB6
:10114E000000000200000000750000000000010019
:0A115E000000CC0600640000000051
:00000001FF
