:100000000C9446000C9465000C9465000C946500FB
:100010000C9465000C9465000C9465000C946500CC
:100020000C9465000C9465000C9465000C946500BC
:100030000C9465000C9465000C9465000C946500AC
:100040000C9465000C9465000C9465000C9465009C
:100050000C9465000C9465000C9465000C9465008C
:100060000C9465000C9465000C9465000C9465007C
:100070000C9465000C9465000C9465000C9465006C
:100080000C9465000C9465000C94650011241FBE4F
:10009000CFEFD0E4DEBFCDBF11E0A0E0B1E0EAE8F1
:1000A000F2E000E00BBF02C007900D92AE30B10746
:1000B000D9F721E0AEE0B1E001C01D92A331B20753
:1000C000E1F70E9411010C9443010C940000CF93BE
:1000D000DF9300D01F92CDB7DEB789837B836A831D
:1000E00089818A3031F48A819B81BC018DE00E9434
:1000F000670080EC90E0FC018081882F90E08072A6
:100100009927892BB1F386EC90E02981FC012083AB
:1001100080E090E00F900F900F90DF91CF910895C5
:10012000CF93DF93CDB7DEB780910F01909110018F
:1001300081309105C1F08130910518F0029761F18D
:1001400044C08FEF8093110180910E01882309F440
:1001500041C081E090E09093100180930F018CECFE
:100160008093110137C080910E01882351F081E006
:1001700090E09093100180930F018CEC809311011B
:100180002BC080910E01882339F582E090E0909396
:10019000100180930F0120C080910E01882351F43B
:1001A00082E090E09093100180930F0183E38093AD
:1001B000110114C080910E01882381F081E090E04C
:1001C0009093100180930F0109C0109210011092BA
:1001D0000F0105C0000003C0000001C000008091B5
:1001E0000F01909110018230910571F083309105DB
:1001F00028F4009759F0019759F00FC0833091050A
:1002000049F0049749F009C0000007C0000005C08C
:10021000000003C0000001C000000000DF91CF918A
:100220000895CF93DF93CDB7DEB781E290E0FC0174
:10023000108282E290E02FEFFC01208387E290E0C1
:100240002FEFFC01208388E290E0FC0110821092E5
:10025000100110920F0180E290E0FC018081882F54
:1002600090E08170992721E0892B09F020E0822F0E
:1002700080930E010E94900088E290E0209111018D
:0A028000FC012083E8CFF894FFCFC3
:0E028A000000000200000000670000000000FD
:00000001FF
