:100000000C9446000C9465000C9465000C946500FB
:100010000C9465000C9465000C9465000C946500CC
:100020000C9465000C9465000C9465000C946500BC
:100030000C9465000C94DE000C9465000C94650033
:100040000C9465000C9465000C9465000C9465009C
:100050000C9465000C9465000C9465000C9465008C
:100060000C9465000C9465000C9465000C9465007C
:100070000C9465000C9465000C9465000C9465006C
:100080000C9465000C9465000C94650011241FBE4F
:10009000CFEFD0E4DEBFCDBF11E0A0E0B1E0E2E5FC
:1000A000F9E000E00BBF02C007900D92A039B10744
:1000B000D9F721E0A0E9B1E001C01D92AE39B20745
:1000C000E1F70E94D6020C94A7040C940000CF9391
:1000D000DF9300D01F92CDB7DEB789837B836A831D
:1000E00089818A3031F48A819B81BC018DE00E9434
:1000F000670080EC90E0FC018081882F90E08072A6
:100100009927892BB1F386EC90E02981FC012083AB
:1001100080E090E00F900F900F90DF91CF910895C5
:10012000CF93DF93CDB7DEB781E890E02BE0FC0101
:10013000208388E890E02DE730E0FC0131832083C4
:100140008FE690E022E0FC01208384E890E0FC014F
:100150001182108280910E0190910F01A0911001E7
:10016000B09111018093910190939201A09393011A
:10017000B09394018FE590E02FE530E0F901208104
:100180002068FC0120830000DF91CF910895CF9378
:10019000DF93CDB7DEB781E890E0FC01108200006C
:1001A000DF91CF910895CF93DF93CDB7DEB781E094
:1001B000809390010000DF91CF9108951F920F92DC
:1001C00000905F000F92112400905B000F922F931C
:1001D0003F934F935F936F937F938F939F93AF93CF
:1001E000BF93EF93FF93CF93DF93CDB7DEB78091AB
:1001F000910190919201A0919301B0919401019786
:10020000A109B1098093910190939201A093930168
:10021000B09394018091910190919201A0919301EA
:10022000B0919401892B8A2B8B2B91F40E94D300DF
:1002300080910E0190910F01A0911001B0911101D8
:100240008093910190939201A0939301B0939401B4
:100250000000DF91CF91FF91EF91BF91AF919F91FE
:100260008F917F916F915F914F913F912F910F905F
:1002700000925B000F9000925F000F901F90189506
:10028000CF93DF9300D000D0CDB7DEB769837A83F8
:100290008B839C8389819A81AB81BC8180930E0181
:1002A00090930F01A0931001B093110180910E0162
:1002B00090910F01A0911001B091110180939101D3
:1002C00090939201A0939301B093940100000F903A
:1002D0000F900F900F90DF91CF9108950F931F9380
:1002E000CF93DF9300D000D0CDB7DEB769837A8398
:1002F0008B839C838091950190919601A0919701A9
:10030000B09198019C01AD0169817A818B819C81BA
:100310000E941303882309F477C020E030E0A9018C
:1003200069817A818B819C810E941303882351F417
:1003300081E990E021E930E0F90120812870FC0199
:10034000208309C081E990E021E930E0F9012081B2
:100350002360FC01208328E539E344E75FE36981FA
:100360007A818B819C810E941303882344F488E95D
:1003700090E02FEF3FEFFC013183208334C020E079
:1003800034E244EF56E469817A818B819C810E943A
:100390003504181634F488E990E0FC0111821082CB
:1003A00022C008E910E020E030E040E053E4698139
:1003B0007A818B819C810E943A04DC01CB019C01F3
:1003C000AD0160E074E284EF9AE40E941803DC015E
:1003D000CB01BC01CD010E948A03DC01CB01019756
:1003E000F8019183808384E990E0FC0111821082FE
:1003F00089819A81AB81BC8180939501909396010C
:10040000A0939701B093980100000F900F900F9068
:100410000F90DF91CF911F910F910895CF93DF93AC
:10042000CDB7DEB780E990E020E4FC01208381E9CC
:1004300090E02BE0FC01208360E070E0CB010E94A3
:100440006E010000DF91CF910895CF93DF93CDB778
:10045000DEB780E990E0FC01108281E990E0FC01C8
:1004600010820000DF91CF910895CF93DF93CDB735
:10047000DEB780919B0190919C018130910589F0BC
:100480008130910538F08230910511F1039709F41C
:1004900058C06AC083E090E090939C0180939B01D8
:1004A00063C080919901882339F081E090E09093B6
:1004B0009C0180939B0155C080919901882309F08C
:1004C00050C083E090E090939C0180939B0149C0D1
:1004D00080919A018A3170F580919A01882F90E07D
:1004E0008A589E4FFC01908180919D019817A0F041
:1004F00080919A01882F90E0880F991F880F991F8B
:100500008E5E9E4FFC0180819181A281B381BC01EE
:10051000CD010E946E0107C080919A018F5F809388
:100520009A0110929D0182E090E090939C0180934B
:100530009B011AC081E090E090939C0180939B0105
:1005400013C060E070E0CB010E946E0180919901C0
:10055000882349F082E090E090939C0180939B0176
:1005600002C0000001C0000080919B0190919C019D
:1005700081309105A1F08130910598F0823091058C
:1005800019F0039739F00EC080919D018F5F809321
:100590009D0108C010929A0110929D0103C00000B5
:1005A00001C000000000DF91CF910895CF93DF9349
:1005B000CDB7DEB781E290E0FC01108282E290E0EC
:1005C0002FEFFC01208384E290E02FEFFC012083D9
:1005D00085E290E0FC01108262E370E080E090E050
:1005E0000E9440010E94900010929C0110929B0179
:1005F0000E940E0280E290E0FC018081882F90E052
:100600008170992721E0892B09F020E0822F8093C7
:1006100099010E9435020000809190018823E1F346
:1006200010929001E7CF0E94C00308F481E0089582
:100630000E942C030C94FB030E94F40358F00E94C8
:10064000ED0340F029F45F3F29F00C94E4035111CD
:100650000C942F040C94EA030E940C0468F3992371
:10066000B1F3552391F3951B550BBB27AA276217AE
:100670007307840738F09F5F5F4F220F331F441FBB
:10068000AA1FA9F335D00E2E3AF0E0E832D09150EF
:100690005040E695001CCAF72BD0FE2F29D0660FDC
:1006A000771F881FBB1F261737074807AB07B0E81F
:1006B00009F0BB0B802DBF01FF2793585F4F3AF025
:1006C0009E3F510578F00C94E4030C942F045F3F97
:1006D000E4F3983ED4F3869577956795B795F795AB
:1006E0009F5FC9F7880F911D9695879597F9089593
:1006F000E1E0660F771F881FBB1F6217730784072F
:10070000BA0720F0621B730B840BBA0BEE1F88F73D
:10071000E09508950E9491036894B1110C942F0400
:1007200008950E94140488F09F5798F0B92F9927D4
:10073000B751B0F0E1F0660F771F881F991F1AF0CC
:10074000BA95C9F714C0B13091F00E942E04B1E0FF
:1007500008950C942E04672F782F8827B85F39F0FE
:10076000B93FCCF3869577956795B395D9F73EF465
:1007700090958095709561957F4F8F4F9F4F08950D
:10078000990F0008550FAA0BE0E8FEEF16161706A2
:10079000E807F907C0F012161306E407F50798F00A
:1007A000621B730B840B950B39F40A2661F0232B23
:1007B000242B252B21F408950A2609F4A140A6959F
:1007C0008FEF811D811D089597F99F6780E870E084
:1007D00060E008959FEF80EC089500240A941616B7
:1007E000170618060906089500240A94121613061F
:1007F000140605060895092E0394000C11F48823AD
:1008000052F0BB0F40F4BF2B11F460FF04C06F5FC8
:100810007F4F8F4F9F4F089557FD9058440F551F9E
:1008200059F05F3F71F04795880F97FB991F61F072
:100830009F3F79F087950895121613061406551FE9
:10084000F2CF4695F1DF08C0161617061806991F55
:10085000F1CF86957105610508940895E894BB274A
:1008600066277727CB0197F908950E94C00308F403
:100870008FEF08950E944D040C94FB030E94ED033A
:1008800038F00E94F40320F0952311F00C94E40357
:100890000C94EA0311240C942F040E940C0470F3AE
:1008A000959FC1F3950F50E0551F629FF001729F15
:1008B000BB27F00DB11D639FAA27F00DB11DAA1F24
:1008C000649F6627B00DA11D661F829F2227B00D71
:1008D000A11D621F739FB00DA11D621F839FA00DFC
:1008E000611D221F749F3327A00D611D231F849F4C
:1008F000600D211D822F762F6A2F11249F575040A3
:100900009AF0F1F088234AF0EE0FFF1FBB1F661F1D
:10091000771F881F91505040A9F79E3F510580F0E6
:100920000C94E4030C942F045F3FE4F3983ED4F35B
:10093000869577956795B795F795E7959F5FC1F78A
:10094000FE2B880F911D9695879597F90895F89439
:02095000FFCFD7
:10095200000000020000000067000000000001002B
:1009620000000000DC437BD49243A4D0A443A4F053
:10097200F643A4D0A443719DAE43A4D08243719D9B
:10098200AE430000C4437BD492430000C443000042
:10099200DC43A4D0A4430000DC43A4F0F64300806F
:1009A200AE43A4F0F64300D002440000C443A4D0F6
:1009B20082437BD49243000000000000000000004C
:1009C2000000000000000303030404040404040400
:1009D20004040404040404040404040404040400D9
:00000001FF
