:100000000C9446000C945D000C945D000C945D0013
:100010000C945D000C945D000C945D000C945D00EC
:100020000C945D000C945D000C945D000C945D00DC
:100030000C945D000C945D000C945D000C945D00CC
:100040000C945D000C945D000C945D000C945D00BC
:100050000C945D000C945D000C945D000C945D00AC
:100060000C945D000C945D000C945D000C945D009C
:100070000C945D000C945D000C945D000C945D008C
:100080000C945D000C945D000C945D0011241FBE67
:10009000CFEFD0E4DEBFCDBF11E0A0E0B1E0ECE7F0
:1000A000F2E000E00BBF02C007900D92AE30B10746
:1000B000D9F70E9499000C943C010C940000CF9356
:1000C000DF9300D01F92CDB7DEB789837B836A832D
:1000D00089818A3031F48A819B81BC018DE00E9444
:1000E0005F0080EC90E0FC018081882F90E08072BE
:1000F0009927892BB1F386EC90E02981FC012083BC
:1001000080E090E00F900F900F90DF91CF910895D5
:10011000CF93DF93CDB7DEB78AE790E02AE730E0F0
:10012000F9012081206EFC0120830000DF91CF9136
:100130000895CF93DF9300D000D0CDB7DEB781E232
:1001400090E0FC01108282E290E02FEFFC0120831E
:1001500084E290E02FEFFC01208385E290E0FC0137
:1001600010828AE290E02FEFFC0120838BE290E086
:10017000FC01108288E790E0FC01808191819B83E3
:100180008A830E94880088E790E0FC018081918149
:100190009B838A8387EE8C838C81882F90E00297E3
:1001A0009C018A819B818217930718F08FEF8983C6
:1001B0005DC08C81882F90E004979C018A819B818F
:1001C0008217930718F08FE7898350C08C81882F9E
:1001D00090E008979C018A819B818217930718F011
:1001E0008FE3898343C08C81882F90E040979C01E6
:1001F0008A819B818217930718F08FE1898336C02B
:100200008C81882F90E080979C018A819B81821746
:10021000930718F08FE0898329C08C81882F90E0A4
:10022000805491099C018A819B818217930718F061
:1002300087E089831BC08C81882F90E08C579109BF
:100240009C018A819B818217930718F083E0898340
:100250000DC08C81882F90E0885F91099C018A8174
:100260009B818217930710F481E0898385E290E0F7
:0C0270002981FC01208387CFF894FFCF88
:0E027C0000000002000000005F000000000013
:00000001FF
