:100000000C9446000C9465000C9465000C946500FB
:100010000C9465000C9465000C9465000C946500CC
:100020000C9465000C9465000C9465000C946500BC
:100030000C9465000C945F030C9465000C946500AF
:100040000C9465000C9465000C9465000C9465009C
:100050000C9465000C9465000C9465000C9465008C
:100060000C9465000C9465000C9465000C9465007C
:100070000C9465000C9465000C9465000C9465006C
:100080000C9465000C9465000C94650011241FBE4F
:10009000CFEFD0E4DEBFCDBF11E0A0E0B1E0E6EFEE
:1000A000FAE000E00BBF02C007900D92A831B10743
:1000B000D9F721E0A8E1B1E001C01D92A736B2074F
:1000C000E1F70E94C1030C9479050C940000CF93D2
:1000D000DF9300D01F92CDB7DEB789837B836A831D
:1000E00089818A3031F48A819B81BC018DE00E9434
:1000F000670080EC90E0FC018081882F90E08072A6
:100100009927892BB1F386EC90E02981FC012083AB
:1001100080E090E00F900F900F90DF91CF910895C5
:10012000CF93DF9300D0CDB7DEB79A8389838981DF
:100130009A818130910599F0823091051CF4892BC8
:1001400039F025C08230910591F00397C1F01FC0AE
:1001500010925C0181E090E09A8389831BC081E06A
:1001600080935C0182E090E09A83898313C082E0EF
:1001700080935C0183E090E09A8389830BC084E0E4
:1001800080935C0181E090E09A83898303C01A82A6
:100190001982000089819A810F900F90DF91CF9191
:1001A0000895CF93DF9300D0CDB7DEB79A838983CC
:1001B00089819A818130910561F08230910589F0C1
:1001C000892BB1F41092610181E090E09A838983D8
:1001D00012C088E08093610182E090E09A83898375
:1001E0000AC01092610181E090E09A83898303C084
:1001F0001A821982000089819A810F900F90DF91F5
:10020000CF910895CF93DF9300D0CDB7DEB79A8317
:10021000898389819A818130910599F08230910595
:100220001CF4892B39F058C08230910541F10397B5
:10023000E9F152C01092660181E090E09A838983CF
:100240004FC080E290E0FC018081882F90E08470B4
:100250009927892B29F081E090E09A8389833FC018
:1002600080E290E0FC018081882F90E084709927E3
:10027000892BA9F582E090E09A83898330C080E1E0
:100280008093660180E290E0FC018081882F90E0FD
:1002900084709927892B29F081E090E09A838983E3
:1002A0001FC083E090E09A8389831AC01092660190
:1002B00080E290E0FC018081882F90E08470992793
:1002C000892B29F081E090E09A83898309C082E03C
:1002D00090E09A83898304C01A82198201C00000C9
:1002E00089819A810F900F90DF91CF910895CF93DC
:1002F000DF9300D000D0CDB7DEB79C838B8380E244
:1003000090E0FC018081882F90E08170992721E0A6
:10031000892B09F020E0298380E290E0FC018081B4
:10032000809582708A838B819C818130910561F0F8
:100330008230910509F44AC0892B09F051C081E04F
:1003400090E09C838B8350C080915B01882F90E06C
:10035000A0E0B0E08093450190934601A09347014F
:10036000B09348018981882341F48A81882329F444
:1003700081E090E09C838B8328C08981882389F465
:100380008A81882371F082E090E09C838B83809146
:100390005B018230D0F080915B01815080935B01E2
:1003A00014C089818823F9F08A818823E1F482E0EE
:1003B00090E09C838B8380915B018031A0F48091DD
:1003C0005B018F5F80935B010EC00DC08981882324
:1003D00039F48981882321F481E090E09C838B8328
:1003E0001C821B8201C000008B819C810F900F90AA
:1003F0000F900F90DF91CF910895CF93DF9300D0AE
:10040000CDB7DEB79A83898389819A81009719F0E5
:10041000019751F01AC085E290E0FC01108281E062
:1004200090E09A83898314C085E290E030915C016A
:1004300020916101322B20916601232BFC01208346
:1004400081E090E09A83898303C01A8219820000B8
:1004500089819A810F900F90DF91CF9108950F932A
:100460001F93CF93DF931F92CDB7DEB71982A6C03B
:100470008981282F30E0C901880F991F820F931FAF
:10048000880F991F880F991F8B5D9E4FFC0120815B
:100490003181428153818981682F70E0CB01880FBF
:1004A000991F860F971F880F991F880F991F8F5DBF
:1004B0009E4FFC0180819181A281B3812817390769
:1004C0004A075B0708F449C08981082F10E0898139
:1004D000282F30E0C901880F991F820F931F880FC2
:1004E000991F880F991F875D9E4FFC0140815181A4
:1004F0008981282F30E0C901880F991F820F931F2F
:10050000880F991F880F991F815E9E4FFC01808183
:100510009181FA0109959C01C801880F991F800FEC
:10052000911F880F991F880F991F815E9E4FFC01B4
:10053000318320838981282F30E0C901880F991FDA
:10054000820F931F880F991F880F991F8B5D9E4FF5
:10055000FC0110821182128213828981682F70E05F
:100560008981282F30E0C901880F991F820F931FBE
:10057000880F991F880F991F8B5D9E4FFC0180810A
:100580009181A281B38121E030E040E050E0280F6A
:10059000391F4A1F5B1FCB01880F991F860F971FBA
:1005A000880F991F880F991F8B5D9E4FFC01208338
:1005B00031834283538389818F5F89838981282F87
:1005C00030E085E090E02817390708F451CF0000AB
:1005D0000F90DF91CF911F910F910895CF93DF93EB
:1005E00000D000D0CDB7DEB769837A838B839C833C
:1005F00089819A81AB81BC8180930E0190930F0118
:10060000A0931001B093110180910E0190910F0100
:10061000A0911001B09111018093190190931A01DA
:10062000A0931B01B0931C0100000F900F900F903E
:100630000F90DF91CF910895CF93DF93CDB7DEB7C1
:1006400081E890E02BE0FC01208388E890E02DE732
:1006500030E0FC01318320838FE690E022E0FC0152
:10066000208384E890E0FC011182108280910E01C9
:1006700090910F01A0911001B09111018093190187
:1006800090931A01A0931B01B0931C018FE590E099
:100690002FE530E0F90120812068FC012083000073
:1006A000DF91CF910895CF93DF93CDB7DEB781E887
:1006B00090E0FC0110820000DF91CF9108951F921D
:1006C0000F9200905F000F92112400905B000F9238
:1006D0002F933F934F935F936F937F938F939F934A
:1006E000AF93BF93EF93FF93CF93DF93CDB7DEB775
:1006F0008091190190911A01A0911B01B0911C01E8
:100700000197A109B1098093190190931A01A0934F
:100710001B01B0931C018091190190911A01A091C5
:100720001B01B0911C01892B8A2B8B2B91F40E9409
:100730002F0280910E0190910F01A0911001B091B4
:1007400011018093190190931A01A0931B01B0939A
:100750001C010000DF91CF91FF91EF91BF91AF910C
:100760009F918F917F916F915F914F913F912F91C9
:100770000F9000925B000F9000925F000F901F900F
:100780001895CF93DF931F92CDB7DEB781E290E04B
:10079000FC01108282E290E02FEFFC01208384E2D2
:1007A00090E02FEFFC01208385E290E0FC011082B5
:1007B00019828981282F30E0C901880F991F820F83
:1007C000931F880F991F880F991F815E9E4FFC0110
:1007D000118210828981282F30E0C901880F991F6A
:1007E000820F931F880F991F880F991F9C012F5DFF
:1007F0003E4F8CE291E0A0E0B0E0F901808391836C
:10080000A283B3838981282F30E0C901880F991F03
:10081000820F931F880F991F880F991F8B5D9E4F22
:10082000FC0110821182128213828981282F30E00C
:10083000C901880F991F820F931F880F991F880F76
:10084000991F875D9E4F20E930E0FC0131832083B2
:1008500089818F5F89838981282F30E0C901880FC2
:10086000991F820F931F880F991F880F991F815E10
:100870009E4FFC01118210828981282F30E0C9012E
:10088000880F991F820F931F880F991F880F991F38
:100890009C012F5D3E4F88EE93E0A0E0B0E0F901AF
:1008A00080839183A283B3838981282F30E0C9019B
:1008B000880F991F820F931F880F991F880F991F08
:1008C0008B5D9E4FFC0110821182128213828981FE
:1008D000282F30E0C901880F991F820F931F880FBE
:1008E000991F880F991F875D9E4F21ED30E0FC0115
:1008F0003183208389818F5F89838981282F30E02C
:10090000C901880F991F820F931F880F991F880FA5
:10091000991F815E9E4FFC01118210828981282FD0
:1009200030E0C901880F991F820F931F880F991F0C
:10093000880F991F9C012F5D3E4F81E090E0A0E061
:10094000B0E0F90180839183A283B3838981282F4A
:1009500030E0C901880F991F820F931F880F991FDC
:10096000880F991F8B5D9E4FFC01108211821282AD
:1009700013828981282F30E0C901880F991F820FC7
:10098000931F880F991F880F991F875D9E4F2DEF2A
:1009900031E0FC013183208389818F5F89838981E4
:1009A000282F30E0C901880F991F820F931F880FED
:1009B000991F880F991F815E9E4FFC011182108242
:1009C0008981282F30E0C901880F991F820F931F5A
:1009D000880F991F880F991F9C012F5D3E4F81E062
:1009E00090E0A0E0B0E0F90180839183A283B3831B
:1009F0008981282F30E0C901880F991F820F931F2A
:100A0000880F991F880F991F8B5D9E4FFC011082E4
:100A10001182128213828981282F30E0C901880F48
:100A2000991F820F931F880F991F880F991F875D49
:100A30009E4F22E031E0FC013183208389818F5F6A
:100A400089838981282F30E0C901880F991F820F7F
:100A5000931F880F991F880F991F815E9E4FFC017D
:100A6000118210828981282F30E0C901880F991FD7
:100A7000820F931F880F991F880F991F9C012F5D6C
:100A80003E4F85E090E0A0E0B0E0F90180839183E3
:100A9000A283B3838981282F30E0C901880F991F71
:100AA000820F931F880F991F880F991F8B5D9E4F90
:100AB000FC0110821182128213828981282F30E07A
:100AC000C901880F991F820F931F880F991F880FE4
:100AD000991F875D9E4F27E731E0FC01318320831A
:100AE00061E070E080E090E00E94EE020E941C0352
:060AF000FFCFF894FFCFD8
:100AF6000000000200000000670000000000010086
:080B06000000050001000000E1
:00000001FF
