:100000000C9446000C9465000C9465000C946500FB
:100010000C9465000C9465000C9465000C946500CC
:100020000C9465000C9465000C9465000C946500BC
:100030000C9465000C94C0010C9465000C94650050
:100040000C9465000C9465000C9465000C9465009C
:100050000C9465000C9465000C9465000C9465008C
:100060000C9465000C9465000C9465000C9465007C
:100070000C9465000C9465000C9465000C9465006C
:100080000C9465000C9465000C94650011241FBE4F
:10009000CFEFD0E4DEBFCDBF11E0A0E0B1E0E6EDF0
:1000A000F1E100E00BBF02C007900D92AE32B10744
:1000B000D9F721E0AEE2B1E001C01D92A437B2074A
:1000C000E1F70E94E2050C94E9080C940000CF933C
:1000D000DF9300D01F92CDB7DEB789837B836A831D
:1000E00089818A3031F48A819B81BC018DE00E9434
:1000F000670080EC90E0FC018081882F90E08072A6
:100100009927892BB1F386EC90E02981FC012083AB
:1001100080E090E00F900F900F90DF91CF910895C5
:10012000CF93DF9300D000D0CDB7DEB769837A8359
:100130008B839C8389819A81AB81BC8180930E01E2
:1001400090930F01A0931001B093110180910E01C3
:1001500090910F01A0911001B091110180932F0196
:1001600090933001A0933101B093320100000F90C1
:100170000F900F900F90DF91CF910895CF93DF9361
:10018000CDB7DEB781E890E02BE0FC01208388E862
:1001900090E02DE730E0FC01318320838FE690E092
:1001A00022E0FC01208384E890E0FC0111821082AF
:1001B00080910E0190910F01A0911001B091110159
:1001C00080932F0190933001A0933101B0933201BD
:1001D0008FE590E02FE530E0F90120812068FC01F7
:1001E00020830000DF91CF910895CF93DF93CDB7A7
:1001F000DEB781E890E0FC0110820000DF91CF9132
:1002000008950F931F93CF93DF931F92CDB7DEB75F
:100210001982A6C08981282F30E0C901880F991F53
:10022000820F931F880F991F880F991F815C9E4F23
:10023000FC0120813181428153818981682F70E0E6
:10024000CB01880F991F860F971F880F991F880F62
:10025000991F855C9E4FFC0180819181A281B381B1
:10026000281739074A075B0708F449C08981082F16
:1002700010E08981282F30E0C901880F991F820F73
:10028000931F880F991F880F991F8D5B9E4FFC014C
:10029000408151818981282F30E0C901880F991F41
:1002A000820F931F880F991F880F991F875C9E4F9D
:1002B000FC0180819181FA0109959C01C801880F98
:1002C000991F800F911F880F991F880F991F875CB6
:1002D0009E4FFC01318320838981282F30E0C901A2
:1002E000880F991F820F931F880F991F880F991FDE
:1002F000815C9E4FFC0110821182128213828981DF
:10030000682F70E08981282F30E0C901880F991F7C
:10031000820F931F880F991F880F991F815C9E4F32
:10032000FC0180819181A281B38124E630E040E02C
:1003300050E0280F391F4A1F5B1FCB01880F991F00
:10034000860F971F880F991F880F991F815C9E4FFA
:10035000FC01208331834283538389818F5F8983AA
:100360008981282F30E084E090E02817390708F4CD
:1003700051CF00000F90DF91CF911F910F91089501
:100380001F920F9200905F000F92112400905B006B
:100390000F922F933F934F935F936F937F938F931E
:1003A0009F93AF93BF93EF93FF93CF93DF93CDB71B
:1003B000DEB780912F0190913001A0913101B09171
:1003C00032010197A109B10980932F019093300167
:1003D000A0933101B093320180912F0190913001AF
:1003E000A0913101B0913201892B8A2B8B2B91F492
:1003F0000E94010180910E0190910F01A0911001C6
:10040000B091110180932F0190933001A09331019D
:10041000B09332010000DF91CF91FF91EF91BF9136
:10042000AF919F918F917F916F915F914F913F918C
:100430002F910F9000925B000F9000925F000F9041
:100440001F9018950F931F93CF93DF9300D000D088
:10045000CDB7DEB769837A838B839C838091340127
:1004600090913501A0913601B09137019C01AD0109
:1004700069817A818B819C810E945507882309F4C8
:1004800077C020E030E0A90169817A818B819C816D
:100490000E945507882351F481E990E021E930E07A
:1004A000F90120812870FC01208309C081E990E0D6
:1004B00021E930E0F90120812360FC01208328E557
:1004C00039E344E75FE369817A818B819C810E94F3
:1004D0005507882344F488E990E02FEF3FEFFC01B3
:1004E0003183208334C020E034E244EF56E4698154
:1004F0007A818B819C810E947708181634F488E9F0
:1005000090E0FC011182108222C008E910E020E096
:1005100030E040E053E469817A818B819C810E94C4
:100520007C08DC01CB019C01AD0160E074E284EF4A
:100530009AE40E945A07DC01CB01BC01CD010E9464
:10054000CC07DC01CB010197F8019183808384E91A
:1005500090E0FC011182108289819A81AB81BC817B
:100560008093340190933501A0933601B093370105
:1005700000000F900F900F900F90DF91CF911F917F
:100580000F910895CF93DF93CDB7DEB780E990E068
:1005900020E4FC01208381E990E02BE0FC01208332
:1005A00060E070E0CB010E9422020000DF91CF9159
:1005B0000895CF93DF93CDB7DEB780E990E0FC01DB
:1005C000108281E990E0FC0110820000DF91CF9160
:1005D0000895CF93DF9300D01F92CDB7DEB7898304
:1005E0006A834B838B81882371F08A81282F30E0C6
:1005F00081E090E002C0880F991F2A95E2F7982FBA
:100600008981892B0EC08A81282F30E081E090E01B
:1006100002C0880F991F2A95E2F7982F909589813B
:1006200089230F900F900F90DF91CF910895CF9372
:10063000DF9300D0CDB7DEB789836A838A81282F04
:1006400030E081E090E002C0880F991F2A95E2F720
:10065000982F898189230F900F90DF91CF91089572
:10066000CF93DF93CDB7DEB788E290E02FEEFC01A9
:100670002083000086E290E0FC01808160E00E941F
:100680001703882311F481E3B8C086E290E0FC01EF
:10069000808161E00E941703882311F484E3ADC0D8
:1006A00086E290E0FC01808162E00E9417038823CB
:1006B00011F487E3A2C086E290E0FC01808163E050
:1006C0000E941703882311F48AE297C088E290E021
:1006D0002FEDFC012083000086E290E0FC01808188
:1006E00060E00E941703882311F482E386C086E24B
:1006F00090E0FC01808161E00E941703882311F4DF
:1007000085E37BC086E290E0FC01808162E00E948C
:100710001703882311F488E370C086E290E0FC019F
:10072000808163E00E941703882311F480E365C091
:1007300088E290E02FEBFC012083000086E290E04D
:10074000FC01808160E00E941703882311F483E399
:1007500054C086E290E0FC01808161E00E941703B2
:10076000882311F486E349C086E290E0FC01808191
:1007700062E00E941703882311F489E33EC086E2F9
:1007800090E0FC01808163E00E941703882311F44C
:1007900083E233C088E290E02FE7FC012083000071
:1007A00086E290E0FC01808160E00E9417038823CC
:1007B00011F481E422C086E290E0FC01808161E0D6
:1007C0000E941703882311F482E417C086E290E0A8
:1007D000FC01808162E00E941703882311F483E406
:1007E0000CC086E290E0FC01808163E00E94170368
:1007F000882311F484E401C080E0DF91CF91089553
:10080000CF93DF9300D000D0CDB7DEB79C838B832E
:100810000E94300389838B819C8182309105A1F1F4
:10082000833091052CF4009751F0019779F0A1C025
:1008300083309105D1F1049709F487C09AC01092D2
:100840006C0181E090E09C838B839DC080916F015F
:10085000853029F481E08093330110926F01898102
:10086000833249F410926C0110926F0184E090E0A1
:100870009C838B8381C08981833209F47DC081E0B0
:1008800090E09C838B8378C08981882329F483E05E
:1008900090E09C838B8372C08981882309F46EC0A9
:1008A00082E090E09C838B8369C08981882341F139
:1008B00080916C01853020F589818A8382E090E007
:1008C0009C838B8380916C01882F90E0885D9E4F84
:1008D000FC0190818A81981769F49091120181E05E
:1008E000992309F080E08093120180916F018F5F5E
:1008F00080936F0180916C018F5F80936C0124C0A5
:100900008981833249F410926C0110926F0184E066
:1009100090E09C838B8334C08981882349F4809143
:100920006C01853028F483E090E09C838B830CC0BD
:100930008981882329F580916C01853008F181E057
:1009400090E09C838B831CC01BC010926C011092A2
:100950006F018981833229F484E090E09C838B834A
:1009600011C08981882371F483E090E09C838B839C
:1009700009C01C821B8207C0000005C0000003C024
:10098000000001C000008B819C810F900F900F90A0
:100990000F90DF91CF910895CF93DF9300D01F92F6
:1009A000CDB7DEB79B838A8383E290E0FC01808130
:1009B0008095807889838A819B818130910551F06F
:1009C00082309105A1F0892B09F582E090E09B83AC
:1009D0008A831FC08981803829F481E090E09B835D
:1009E0008A8317C082E090E09B838A8312C089814A
:1009F000803839F41092330181E090E09B838A8340
:100A000008C082E090E09B838A8303C01B821A8225
:100A100000008A819B810F900F900F90DF91CF9102
:100A20000895CF93DF9300D01F92CDB7DEB79B839D
:100A30008A8380E290E0FC018081809580788983C0
:100A40008A819B818130910591F0823091051CF45F
:100A5000892B41F05FC082309105D1F0039709F4F2
:100A60004CC058C083E090E09B838A8359C0898141
:100A7000882329F081E090E09B838A834EC089819E
:100A8000882309F04AC083E090E09B838A8345C0B5
:100A900080913801843060F580913801882F90E092
:100AA000815E9E4FFC01908180916B019817A0F0B0
:100AB00080913801882F90E0880F991F880F991F27
:100AC0008D5E9E4FFC0180819181A281B381BC012A
:100AD000CD010E94220207C0809138018F5F809370
:100AE000380110926B0182E090E09B838A8318C0EA
:100AF00081E090E09B838A8313C060E070E0CB01CB
:100B00000E9422028981882351F082E090E09B8339
:100B10008A8305C01B821A8203C0000001C0000046
:100B20008A819B8181309105D1F0823091051CF43E
:100B3000892BB9F011C08230910519F0039739F073
:100B40000BC080916B018F5F80936B010BC0109283
:100B5000380110926B0106C01B821A8203C000008C
:100B600001C000008A819B810F900F900F90DF9150
:100B7000CF910895CF93DF9300D0CDB7DEB79A839E
:100B8000898389819A81009719F0019731F010C00B
:100B900081E090E09A8389830EC085E290E0209105
:100BA0003301FC01208381E090E09A83898303C0B4
:100BB0001A821982000089819A810F900F90DF912B
:100BC000CF910895CF93DF931F92CDB7DEB781E227
:100BD00090E0FC01108282E290E02FEFFC01208384
:100BE00084E290E02FE7FC01208385E290E020E89A
:100BF000FC01208387E290E020EFFC01208388E263
:100C000090E02FE0FC0120830E94C20219828981BA
:100C1000282F30E0C901880F991F820F931F880F7A
:100C2000991F880F991F875C9E4FFC0111821082CB
:100C30008981282F30E0C901880F991F820F931FE7
:100C4000880F991F880F991F9C01255C3E4F84E6F1
:100C500090E0A0E0B0E0F90180839183A283B383A8
:100C60008981282F30E0C901880F991F820F931FB7
:100C7000880F991F880F991F815C9E4FFC0110827D
:100C80001182128213828981282F30E0C901880FD6
:100C9000991F820F931F880F991F880F991F8D5BD3
:100CA0009E4F20E034E0FC013183208389818F5FF7
:100CB00089838981282F30E0C901880F991F820F0D
:100CC000931F880F991F880F991F875C9E4FFC0107
:100CD000118210828981282F30E0C901880F991F65
:100CE000820F931F880F991F880F991F9C01255C05
:100CF0003E4F84E690E0A0E0B0E0F901808391836C
:100D0000A283B3838981282F30E0C901880F991FFE
:100D1000820F931F880F991F880F991F815C9E4F28
:100D2000FC0110821182128213828981282F30E007
:100D3000C901880F991F820F931F880F991F880F71
:100D4000991F8D5B9E4F2CEC34E0FC013183208396
:100D500089818F5F89838981282F30E0C901880FBD
:100D6000991F820F931F880F991F880F991F875C07
:100D70009E4FFC01118210828981282F30E0C90129
:100D8000880F991F820F931F880F991F880F991F33
:100D90009C01255C3E4F88EC90E0A0E0B0E0F901BA
:100DA00080839183A283B3838981282F30E0C90196
:100DB000880F991F820F931F880F991F880F991F03
:100DC000815C9E4FFC011082118212821382898104
:100DD000282F30E0C901880F991F820F931F880FB9
:100DE000991F880F991F8D5B9E4F21E135E0FC0113
:100DF0003183208389818F5F89838981282F30E027
:100E0000C901880F991F820F931F880F991F880FA0
:100E1000991F875C9E4FFC01118210828981282FC7
:100E200030E0C901880F991F820F931F880F991F07
:100E3000880F991F9C01255C3E4F84E690E0A0E05E
:100E4000B0E0F90180839183A283B3838981282F45
:100E500030E0C901880F991F820F931F880F991FD7
:100E6000880F991F815C9E4FFC01108211821282B3
:100E700013828981282F30E0C901880F991F820FC2
:100E8000931F880F991F880F991F8D5B9E4F2AEB28
:100E900035E0FC013183208364E670E080E090E07F
:100EA0000E9490000E94BE00FFCF0E94020808F43A
:100EB00081E008950E946E070C943D080E94360858
:100EC00058F00E942F0840F029F45F3F29F00C945D
:100ED000260851110C9471080C942C080E944E089D
:100EE00068F39923B1F3552391F3951B550BBB2759
:100EF000AA2762177307840738F09F5F5F4F220F9E
:100F0000331F441FAA1FA9F335D00E2E3AF0E0E894
:100F100032D091505040E695001CCAF72BD0FE2FDE
:100F200029D0660F771F881FBB1F26173707480772
:100F3000AB07B0E809F0BB0B802DBF01FF2793582A
:100F40005F4F3AF09E3F510578F00C9426080C94C0
:100F500071085F3FE4F3983ED4F3869577956795E3
:100F6000B795F7959F5FC9F7880F911D969587955F
:100F700097F90895E1E0660F771F881FBB1F62177E
:100F800073078407BA0720F0621B730B840BBA0B3C
:100F9000EE1F88F7E09508950E94D3076894B11179
:100FA0000C94710808950E94560888F09F5798F095
:100FB000B92F9927B751B0F0E1F0660F771F881F5E
:100FC000991F1AF0BA95C9F714C0B13091F00E9478
:100FD0007008B1E008950C947008672F782F882767
:100FE000B85F39F0B93FCCF3869577956795B3959F
:100FF000D9F73EF490958095709561957F4F8F4F0E
:101000009F4F0895990F0008550FAA0BE0E8FEEFD7
:1010100016161706E807F907C0F012161306E407BC
:10102000F50798F0621B730B840B950B39F40A26B5
:1010300061F0232B242B252B21F408950A2609F493
:10104000A140A6958FEF811D811D089597F99F6797
:1010500080E870E060E008959FEF80EC0895002440
:101060000A941616170618060906089500240A940D
:1010700012161306140605060895092E0394000C93
:1010800011F4882352F0BB0F40F4BF2B11F460FF22
:1010900004C06F5F7F4F8F4F9F4F089557FD90584B
:1010A000440F551F59F05F3F71F04795880F97FB2C
:1010B000991F61F09F3F79F08795089512161306E6
:1010C0001406551FF2CF4695F1DF08C01616170615
:1010D0001806991FF1CF869571056105089408954A
:1010E000E894BB2766277727CB0197F908950E94DC
:1010F000020808F48FEF08950E948F080C943D08B1
:101100000E942F0838F00E94360820F0952311F035
:101110000C9426080C942C0811240C9471080E943D
:101120004E0870F3959FC1F3950F50E0551F629FD5
:10113000F001729FBB27F00DB11D639FAA27F00D30
:10114000B11DAA1F649F6627B00DA11D661F829F57
:101150002227B00DA11D621F739FB00DA11D621F3C
:10116000839FA00D611D221F749F3327A00D611D59
:10117000231F849F600D211D822F762F6A2F11243B
:101180009F5750409AF0F1F088234AF0EE0FFF1F6E
:10119000BB1F661F771F881F91505040A9F79E3FC5
:1011A000510580F00C9426080C9471085F3FE4F31D
:1011B000983ED4F3869577956795B795F795E7951B
:1011C0009F5FC1F7FE2B880F911D9695879597F924
:0611D0000895F894FFCF22
:1011D600000000020000000067000000000001009F
:1011E6000000010000DC43A4D0A4437BD492430456
:0E11F60004040400640000003132333435007C
:00000001FF
